{
  "_format": "hh-sol-artifact-1",
  "contractName": "stakeContract",
  "sourceName": "contracts/stake.sol",
  "abi": [
    {
      "inputs": [
        {
          "internalType": "address",
          "name": "_token",
          "type": "address"
        },
        {
          "internalType": "uint256",
          "name": "_timeReward",
          "type": "uint256"
        },
        {
          "internalType": "uint256",
          "name": "_rewardPercent",
          "type": "uint256"
        }
      ],
      "stateMutability": "nonpayable",
      "type": "constructor"
    },
    {
      "inputs": [],
      "name": "ReentrancyGuardReentrantCall",
      "type": "error"
    },
    {
      "anonymous": false,
      "inputs": [
        {
          "indexed": true,
          "internalType": "address",
          "name": "user",
          "type": "address"
        },
        {
          "indexed": false,
          "internalType": "uint256",
          "name": "amount",
          "type": "uint256"
        }
      ],
      "name": "ClaimRewardEvent",
      "type": "event"
    },
    {
      "anonymous": false,
      "inputs": [
        {
          "indexed": true,
          "internalType": "address",
          "name": "user",
          "type": "address"
        },
        {
          "indexed": false,
          "internalType": "uint256",
          "name": "amount",
          "type": "uint256"
        }
      ],
      "name": "StakeEvent",
      "type": "event"
    },
    {
      "anonymous": false,
      "inputs": [
        {
          "indexed": true,
          "internalType": "address",
          "name": "user",
          "type": "address"
        },
        {
          "indexed": false,
          "internalType": "uint256",
          "name": "amount",
          "type": "uint256"
        }
      ],
      "name": "UnstakeEvent",
      "type": "event"
    },
    {
      "inputs": [
        {
          "internalType": "address",
          "name": "",
          "type": "address"
        }
      ],
      "name": "Stake",
      "outputs": [
        {
          "internalType": "uint256",
          "name": "amount",
          "type": "uint256"
        },
        {
          "internalType": "uint256",
          "name": "stakeTime",
          "type": "uint256"
        }
      ],
      "stateMutability": "view",
      "type": "function"
    },
    {
      "inputs": [
        {
          "internalType": "uint256",
          "name": "_stakeTime",
          "type": "uint256"
        }
      ],
      "name": "_dayRewardCalc",
      "outputs": [
        {
          "internalType": "uint256",
          "name": "",
          "type": "uint256"
        }
      ],
      "stateMutability": "view",
      "type": "function"
    },
    {
      "inputs": [
        {
          "internalType": "uint256",
          "name": "_rewardPercent",
          "type": "uint256"
        }
      ],
      "name": "changeRewardPercentage",
      "outputs": [],
      "stateMutability": "nonpayable",
      "type": "function"
    },
    {
      "inputs": [
        {
          "internalType": "uint256",
          "name": "_timeReward",
          "type": "uint256"
        }
      ],
      "name": "changeTimeReward",
      "outputs": [],
      "stateMutability": "nonpayable",
      "type": "function"
    },
    {
      "inputs": [
        {
          "internalType": "uint256",
          "name": "_amount",
          "type": "uint256"
        }
      ],
      "name": "depositOwner",
      "outputs": [],
      "stateMutability": "nonpayable",
      "type": "function"
    },
    {
      "inputs": [],
      "name": "getBalance",
      "outputs": [
        {
          "internalType": "uint256",
          "name": "",
          "type": "uint256"
        }
      ],
      "stateMutability": "view",
      "type": "function"
    },
    {
      "inputs": [],
      "name": "owner",
      "outputs": [
        {
          "internalType": "address payable",
          "name": "",
          "type": "address"
        }
      ],
      "stateMutability": "view",
      "type": "function"
    },
    {
      "inputs": [
        {
          "internalType": "uint256",
          "name": "_amount",
          "type": "uint256"
        }
      ],
      "name": "ownerWithdraw",
      "outputs": [],
      "stateMutability": "nonpayable",
      "type": "function"
    },
    {
      "inputs": [],
      "name": "reward",
      "outputs": [
        {
          "internalType": "uint256",
          "name": "",
          "type": "uint256"
        }
      ],
      "stateMutability": "view",
      "type": "function"
    },
    {
      "inputs": [],
      "name": "rewardPercent",
      "outputs": [
        {
          "internalType": "uint256",
          "name": "",
          "type": "uint256"
        }
      ],
      "stateMutability": "view",
      "type": "function"
    },
    {
      "inputs": [
        {
          "internalType": "uint256",
          "name": "_amount",
          "type": "uint256"
        }
      ],
      "name": "stake",
      "outputs": [],
      "stateMutability": "nonpayable",
      "type": "function"
    },
    {
      "inputs": [],
      "name": "timeReward",
      "outputs": [
        {
          "internalType": "uint256",
          "name": "",
          "type": "uint256"
        }
      ],
      "stateMutability": "view",
      "type": "function"
    },
    {
      "inputs": [],
      "name": "token",
      "outputs": [
        {
          "internalType": "contract IERC20",
          "name": "",
          "type": "address"
        }
      ],
      "stateMutability": "view",
      "type": "function"
    },
    {
      "inputs": [],
      "name": "unSatke",
      "outputs": [],
      "stateMutability": "nonpayable",
      "type": "function"
    },
    {
      "inputs": [],
      "name": "withdrawReward",
      "outputs": [],
      "stateMutability": "nonpayable",
      "type": "function"
    }
  ],
  "bytecode": "0x60a060405234801562000010575f80fd5b506040516200245838038062002458833981810160405281019062000036919062000165565b60015f819055508260035f6101000a81548173ffffffffffffffffffffffffffffffffffffffff021916908373ffffffffffffffffffffffffffffffffffffffff16021790555081600181905550806002819055503373ffffffffffffffffffffffffffffffffffffffff1660808173ffffffffffffffffffffffffffffffffffffffff1681525050505050620001be565b5f80fd5b5f73ffffffffffffffffffffffffffffffffffffffff82169050919050565b5f620000f782620000cc565b9050919050565b6200010981620000eb565b811462000114575f80fd5b50565b5f815190506200012781620000fe565b92915050565b5f819050919050565b62000141816200012d565b81146200014c575f80fd5b50565b5f815190506200015f8162000136565b92915050565b5f805f606084860312156200017f576200017e620000c8565b5b5f6200018e8682870162000117565b9350506020620001a1868287016200014f565b9250506040620001b4868287016200014f565b9150509250925092565b608051612265620001f35f395f8181610483015281816107f101528181610a9a0152818161153501526115f201526122655ff3fe608060405234801561000f575f80fd5b50600436106100f3575f3560e01c8063945cf38e11610095578063d030205111610064578063d030205114610238578063ef7789f314610256578063fc0c546a14610272578063fd6e7b1414610290576100f3565b8063945cf38e146101d8578063a694fc3a146101e2578063bd1c78d8146101fe578063c885bc581461022e576100f3565b8063331afd13116100d1578063331afd131461014f57806333f707d11461016d5780638c000936146101895780638da5cb5b146101ba576100f3565b806312065fe0146100f7578063228cb7331461011557806328cf8bb014610133575b5f80fd5b6100ff6102ac565b60405161010c9190611797565b60405180910390f35b61011d6103b7565b60405161012a9190611797565b60405180910390f35b61014d600480360381019061014891906117de565b610481565b005b6101576107e9565b6040516101649190611797565b60405180910390f35b610187600480360381019061018291906117de565b6107ef565b005b6101a3600480360381019061019e9190611863565b610a78565b6040516101b192919061188e565b60405180910390f35b6101c2610a98565b6040516101cf91906118d5565b60405180910390f35b6101e0610abc565b005b6101fc60048036038101906101f791906117de565b610da7565b005b610218600480360381019061021391906117de565b6111b7565b6040516102259190611797565b60405180910390f35b6102366111db565b005b61024061152d565b60405161024d9190611797565b60405180910390f35b610270600480360381019061026b91906117de565b611533565b005b61027a6115cb565b6040516102879190611949565b60405180910390f35b6102aa60048036038101906102a591906117de565b6115f0565b005b5f806102f760045f3373ffffffffffffffffffffffffffffffffffffffff1673ffffffffffffffffffffffffffffffffffffffff1681526020019081526020015f20600101546111b7565b90505f60646002548361030a919061198f565b60045f3373ffffffffffffffffffffffffffffffffffffffff1673ffffffffffffffffffffffffffffffffffffffff1681526020019081526020015f205f0154610354919061198f565b61035e91906119fd565b90505f8160045f3373ffffffffffffffffffffffffffffffffffffffff1673ffffffffffffffffffffffffffffffffffffffff1681526020019081526020015f205f01546103ac9190611a2d565b905080935050505090565b5f8061041060045f3373ffffffffffffffffffffffffffffffffffffffff1673ffffffffffffffffffffffffffffffffffffffff1681526020019081526020015f2060010154426104089190611a60565b600154611688565b90505f606460025483610423919061198f565b60045f3373ffffffffffffffffffffffffffffffffffffffff1673ffffffffffffffffffffffffffffffffffffffff1681526020019081526020015f205f015461046d919061198f565b61047791906119fd565b9050809250505090565b7f000000000000000000000000000000000000000000000000000000000000000073ffffffffffffffffffffffffffffffffffffffff163373ffffffffffffffffffffffffffffffffffffffff161461050f576040517f08c379a000000000000000000000000000000000000000000000000000000000815260040161050690611b13565b60405180910390fd5b5f8103610551576040517f08c379a000000000000000000000000000000000000000000000000000000000815260040161054890611b7b565b60405180910390fd5b8060035f9054906101000a900473ffffffffffffffffffffffffffffffffffffffff1673ffffffffffffffffffffffffffffffffffffffff166370a08231336040518263ffffffff1660e01b81526004016105ac9190611ba8565b602060405180830381865afa1580156105c7573d5f803e3d5ffd5b505050506040513d601f19601f820116820180604052508101906105eb9190611bd5565b101561062c576040517f08c379a000000000000000000000000000000000000000000000000000000000815260040161062390611c70565b60405180910390fd5b8060035f9054906101000a900473ffffffffffffffffffffffffffffffffffffffff1673ffffffffffffffffffffffffffffffffffffffff1663dd62ed3e33306040518363ffffffff1660e01b8152600401610689929190611c8e565b602060405180830381865afa1580156106a4573d5f803e3d5ffd5b505050506040513d601f19601f820116820180604052508101906106c89190611bd5565b1015610709576040517f08c379a000000000000000000000000000000000000000000000000000000000815260040161070090611d25565b60405180910390fd5b60035f9054906101000a900473ffffffffffffffffffffffffffffffffffffffff1673ffffffffffffffffffffffffffffffffffffffff166323b872dd3330846040518463ffffffff1660e01b815260040161076793929190611d43565b6020604051808303815f875af1158015610783573d5f803e3d5ffd5b505050506040513d601f19601f820116820180604052508101906107a79190611dad565b6107e6576040517f08c379a00000000000000000000000000000000000000000000000000000000081526004016107dd90611e22565b60405180910390fd5b50565b60015481565b7f000000000000000000000000000000000000000000000000000000000000000073ffffffffffffffffffffffffffffffffffffffff163373ffffffffffffffffffffffffffffffffffffffff161461087d576040517f08c379a000000000000000000000000000000000000000000000000000000000815260040161087490611b13565b60405180910390fd5b5f81036108bf576040517f08c379a00000000000000000000000000000000000000000000000000000000081526004016108b690611b7b565b60405180910390fd5b8060035f9054906101000a900473ffffffffffffffffffffffffffffffffffffffff1673ffffffffffffffffffffffffffffffffffffffff166370a08231306040518263ffffffff1660e01b815260040161091a9190611ba8565b602060405180830381865afa158015610935573d5f803e3d5ffd5b505050506040513d601f19601f820116820180604052508101906109599190611bd5565b101561099a576040517f08c379a000000000000000000000000000000000000000000000000000000000815260040161099190611eb0565b60405180910390fd5b60035f9054906101000a900473ffffffffffffffffffffffffffffffffffffffff1673ffffffffffffffffffffffffffffffffffffffff1663a9059cbb33836040518363ffffffff1660e01b81526004016109f6929190611ece565b6020604051808303815f875af1158015610a12573d5f803e3d5ffd5b505050506040513d601f19601f82011682018060405250810190610a369190611dad565b610a75576040517f08c379a0000000000000000000000000000000000000000000000000000000008152600401610a6c90611e22565b60405180910390fd5b50565b6004602052805f5260405f205f91509050805f0154908060010154905082565b7f000000000000000000000000000000000000000000000000000000000000000081565b610ac46116d1565b610acc6111db565b5f60045f3373ffffffffffffffffffffffffffffffffffffffff1673ffffffffffffffffffffffffffffffffffffffff1681526020019081526020015f205f015490505f60045f3373ffffffffffffffffffffffffffffffffffffffff1673ffffffffffffffffffffffffffffffffffffffff1681526020019081526020015f205f01819055504260045f3373ffffffffffffffffffffffffffffffffffffffff1673ffffffffffffffffffffffffffffffffffffffff1681526020019081526020015f20600101819055508060035f9054906101000a900473ffffffffffffffffffffffffffffffffffffffff1673ffffffffffffffffffffffffffffffffffffffff166370a08231306040518263ffffffff1660e01b8152600401610bf39190611ba8565b602060405180830381865afa158015610c0e573d5f803e3d5ffd5b505050506040513d601f19601f82011682018060405250810190610c329190611bd5565b1015610c73576040517f08c379a0000000000000000000000000000000000000000000000000000000008152600401610c6a90611eb0565b60405180910390fd5b60035f9054906101000a900473ffffffffffffffffffffffffffffffffffffffff1673ffffffffffffffffffffffffffffffffffffffff1663a9059cbb33836040518363ffffffff1660e01b8152600401610ccf929190611ece565b6020604051808303815f875af1158015610ceb573d5f803e3d5ffd5b505050506040513d601f19601f82011682018060405250810190610d0f9190611dad565b610d4e576040517f08c379a0000000000000000000000000000000000000000000000000000000008152600401610d4590611e22565b60405180910390fd5b3373ffffffffffffffffffffffffffffffffffffffff167ff45fdc8b170b360d913177d3b852542edf6a0bcbb65f3682769f72e0bd17332682604051610d949190611797565b60405180910390a250610da5611715565b565b5f8103610de9576040517f08c379a0000000000000000000000000000000000000000000000000000000008152600401610de090611f3f565b60405180910390fd5b5f60045f3373ffffffffffffffffffffffffffffffffffffffff1673ffffffffffffffffffffffffffffffffffffffff1681526020019081526020015f205f015414610e6a576040517f08c379a0000000000000000000000000000000000000000000000000000000008152600401610e6190611fcd565b60405180910390fd5b8060035f9054906101000a900473ffffffffffffffffffffffffffffffffffffffff1673ffffffffffffffffffffffffffffffffffffffff166370a08231336040518263ffffffff1660e01b8152600401610ec59190611ba8565b602060405180830381865afa158015610ee0573d5f803e3d5ffd5b505050506040513d601f19601f82011682018060405250810190610f049190611bd5565b1015610f45576040517f08c379a0000000000000000000000000000000000000000000000000000000008152600401610f3c9061205b565b60405180910390fd5b8060035f9054906101000a900473ffffffffffffffffffffffffffffffffffffffff1673ffffffffffffffffffffffffffffffffffffffff1663dd62ed3e33306040518363ffffffff1660e01b8152600401610fa2929190611c8e565b602060405180830381865afa158015610fbd573d5f803e3d5ffd5b505050506040513d601f19601f82011682018060405250810190610fe19190611bd5565b1015611022576040517f08c379a0000000000000000000000000000000000000000000000000000000008152600401611019906120e9565b60405180910390fd5b60035f9054906101000a900473ffffffffffffffffffffffffffffffffffffffff1673ffffffffffffffffffffffffffffffffffffffff166323b872dd3330846040518463ffffffff1660e01b815260040161108093929190611d43565b6020604051808303815f875af115801561109c573d5f803e3d5ffd5b505050506040513d601f19601f820116820180604052508101906110c09190611dad565b6110ff576040517f08c379a00000000000000000000000000000000000000000000000000000000081526004016110f690611e22565b60405180910390fd5b60405180604001604052808281526020014281525060045f3373ffffffffffffffffffffffffffffffffffffffff1673ffffffffffffffffffffffffffffffffffffffff1681526020019081526020015f205f820151815f0155602082015181600101559050503373ffffffffffffffffffffffffffffffffffffffff167fb58845b0a64f92dd8d1ba04f905319d6be2021b57783b3d10155e7e36a84e128826040516111ac9190611797565b60405180910390a250565b5f806111d083426111c89190611a60565b600154611688565b905080915050919050565b6111e36116d1565b5f61122d60045f3373ffffffffffffffffffffffffffffffffffffffff1673ffffffffffffffffffffffffffffffffffffffff1681526020019081526020015f20600101546111b7565b90505f8103611271576040517f08c379a000000000000000000000000000000000000000000000000000000000815260040161126890612177565b60405180910390fd5b5f606460025483611282919061198f565b60045f3373ffffffffffffffffffffffffffffffffffffffff1673ffffffffffffffffffffffffffffffffffffffff1681526020019081526020015f205f01546112cc919061198f565b6112d691906119fd565b90504260045f3373ffffffffffffffffffffffffffffffffffffffff1673ffffffffffffffffffffffffffffffffffffffff1681526020019081526020015f20600101819055508060035f9054906101000a900473ffffffffffffffffffffffffffffffffffffffff1673ffffffffffffffffffffffffffffffffffffffff166370a08231306040518263ffffffff1660e01b81526004016113789190611ba8565b602060405180830381865afa158015611393573d5f803e3d5ffd5b505050506040513d601f19601f820116820180604052508101906113b79190611bd5565b10156113f8576040517f08c379a00000000000000000000000000000000000000000000000000000000081526004016113ef90611eb0565b60405180910390fd5b60035f9054906101000a900473ffffffffffffffffffffffffffffffffffffffff1673ffffffffffffffffffffffffffffffffffffffff1663a9059cbb33836040518363ffffffff1660e01b8152600401611454929190611ece565b6020604051808303815f875af1158015611470573d5f803e3d5ffd5b505050506040513d601f19601f820116820180604052508101906114949190611dad565b6114d3576040517f08c379a00000000000000000000000000000000000000000000000000000000081526004016114ca90611e22565b60405180910390fd5b3373ffffffffffffffffffffffffffffffffffffffff167fbac2b4e3756ca11aceca25df7422e66f759ddc2576a05e12df11b0cc8d9aade8826040516115199190611797565b60405180910390a2505061152b611715565b565b60025481565b7f000000000000000000000000000000000000000000000000000000000000000073ffffffffffffffffffffffffffffffffffffffff163373ffffffffffffffffffffffffffffffffffffffff16146115c1576040517f08c379a00000000000000000000000000000000000000000000000000000000081526004016115b890611b13565b60405180910390fd5b8060018190555050565b60035f9054906101000a900473ffffffffffffffffffffffffffffffffffffffff1681565b7f000000000000000000000000000000000000000000000000000000000000000073ffffffffffffffffffffffffffffffffffffffff163373ffffffffffffffffffffffffffffffffffffffff161461167e576040517f08c379a000000000000000000000000000000000000000000000000000000000815260040161167590611b13565b60405180910390fd5b8060028190555050565b5f6116c983836040518060400160405280601a81526020017f536166654d6174683a206469766973696f6e206279207a65726f00000000000081525061171e565b905092915050565b60025f540361170c576040517f3ee5aeb500000000000000000000000000000000000000000000000000000000815260040160405180910390fd5b60025f81905550565b60015f81905550565b5f8083118290611764576040517f08c379a000000000000000000000000000000000000000000000000000000000815260040161175b919061220f565b60405180910390fd5b505f838561177291906119fd565b9050809150509392505050565b5f819050919050565b6117918161177f565b82525050565b5f6020820190506117aa5f830184611788565b92915050565b5f80fd5b6117bd8161177f565b81146117c7575f80fd5b50565b5f813590506117d8816117b4565b92915050565b5f602082840312156117f3576117f26117b0565b5b5f611800848285016117ca565b91505092915050565b5f73ffffffffffffffffffffffffffffffffffffffff82169050919050565b5f61183282611809565b9050919050565b61184281611828565b811461184c575f80fd5b50565b5f8135905061185d81611839565b92915050565b5f60208284031215611878576118776117b0565b5b5f6118858482850161184f565b91505092915050565b5f6040820190506118a15f830185611788565b6118ae6020830184611788565b9392505050565b5f6118bf82611809565b9050919050565b6118cf816118b5565b82525050565b5f6020820190506118e85f8301846118c6565b92915050565b5f819050919050565b5f61191161190c61190784611809565b6118ee565b611809565b9050919050565b5f611922826118f7565b9050919050565b5f61193382611918565b9050919050565b61194381611929565b82525050565b5f60208201905061195c5f83018461193a565b92915050565b7f4e487b71000000000000000000000000000000000000000000000000000000005f52601160045260245ffd5b5f6119998261177f565b91506119a48361177f565b92508282026119b28161177f565b915082820484148315176119c9576119c8611962565b5b5092915050565b7f4e487b71000000000000000000000000000000000000000000000000000000005f52601260045260245ffd5b5f611a078261177f565b9150611a128361177f565b925082611a2257611a216119d0565b5b828204905092915050565b5f611a378261177f565b9150611a428361177f565b9250828201905080821115611a5a57611a59611962565b5b92915050565b5f611a6a8261177f565b9150611a758361177f565b9250828203905081811115611a8d57611a8c611962565b5b92915050565b5f82825260208201905092915050565b7f596f7520617265206e6f7420746865206f776e6572206f66207468697320636f5f8201527f6e74726163740000000000000000000000000000000000000000000000000000602082015250565b5f611afd602683611a93565b9150611b0882611aa3565b604082019050919050565b5f6020820190508181035f830152611b2a81611af1565b9050919050565b7f416d6f756e74206d757374206e6f74206265207a65726f0000000000000000005f82015250565b5f611b65601783611a93565b9150611b7082611b31565b602082019050919050565b5f6020820190508181035f830152611b9281611b59565b9050919050565b611ba281611828565b82525050565b5f602082019050611bbb5f830184611b99565b92915050565b5f81519050611bcf816117b4565b92915050565b5f60208284031215611bea57611be96117b0565b5b5f611bf784828501611bc1565b91505092915050565b7f596f7520646f6e74206861766520656e6f75676820746f6b656e20746f2064655f8201527f706f736974000000000000000000000000000000000000000000000000000000602082015250565b5f611c5a602583611a93565b9150611c6582611c00565b604082019050919050565b5f6020820190508181035f830152611c8781611c4e565b9050919050565b5f604082019050611ca15f830185611b99565b611cae6020830184611b99565b9392505050565b7f596f7520646f6e74206861766520656e6f75676820616c6c6f77616e636520745f8201527f6f206465706f7369740000000000000000000000000000000000000000000000602082015250565b5f611d0f602983611a93565b9150611d1a82611cb5565b604082019050919050565b5f6020820190508181035f830152611d3c81611d03565b9050919050565b5f606082019050611d565f830186611b99565b611d636020830185611b99565b611d706040830184611788565b949350505050565b5f8115159050919050565b611d8c81611d78565b8114611d96575f80fd5b50565b5f81519050611da781611d83565b92915050565b5f60208284031215611dc257611dc16117b0565b5b5f611dcf84828501611d99565b91505092915050565b7f5472616e73616374696f6e204661696c640000000000000000000000000000005f82015250565b5f611e0c601183611a93565b9150611e1782611dd8565b602082019050919050565b5f6020820190508181035f830152611e3981611e00565b9050919050565b7f54686520436f6e74726163742062616c616e6365206973206e6f7420656e6f755f8201527f6768000000000000000000000000000000000000000000000000000000000000602082015250565b5f611e9a602283611a93565b9150611ea582611e40565b604082019050919050565b5f6020820190508181035f830152611ec781611e8e565b9050919050565b5f604082019050611ee15f830185611b99565b611eee6020830184611788565b9392505050565b7f546865206d696e696d756d2076616c7565206572726f720000000000000000005f82015250565b5f611f29601783611a93565b9150611f3482611ef5565b602082019050919050565b5f6020820190508181035f830152611f5681611f1d565b9050919050565b7f596f75206861766520616c7265616479207374616b656420706c6561736520665f8201527f6972737420756e7374616b6520796f7572206c61737420616374697669747900602082015250565b5f611fb7603f83611a93565b9150611fc282611f5d565b604082019050919050565b5f6020820190508181035f830152611fe481611fab565b9050919050565b7f596f7520646f6e74206861766520656e6f75676820746f6b656e20746f2073745f8201527f616b650000000000000000000000000000000000000000000000000000000000602082015250565b5f612045602383611a93565b915061205082611feb565b604082019050919050565b5f6020820190508181035f83015261207281612039565b9050919050565b7f596f7520646f6e74206861766520656e6f75676820616c6c6f77616e636520745f8201527f6f207374616b6500000000000000000000000000000000000000000000000000602082015250565b5f6120d3602783611a93565b91506120de82612079565b604082019050919050565b5f6020820190508181035f830152612100816120c7565b9050919050565b7f596f752063616e7420776974686472617720796f7572207265776172642061745f8201527f20746869732074696d6500000000000000000000000000000000000000000000602082015250565b5f612161602a83611a93565b915061216c82612107565b604082019050919050565b5f6020820190508181035f83015261218e81612155565b9050919050565b5f81519050919050565b5f5b838110156121bc5780820151818401526020810190506121a1565b5f8484015250505050565b5f601f19601f8301169050919050565b5f6121e182612195565b6121eb8185611a93565b93506121fb81856020860161219f565b612204816121c7565b840191505092915050565b5f6020820190508181035f83015261222781846121d7565b90509291505056fea2646970667358221220b59185c81c2ddeb7edf634c8a10d452541681be1cc04709ea2fc8152f92128fb64736f6c63430008140033",
  "linkReferences": {},
  "deployedLinkReferences": {}
}