{
  "_format": "hh-sol-artifact-1",
  "contractName": "stakeContract",
  "sourceName": "contracts/stake.sol",
  "abi": [
    {
      "inputs": [
        {
          "internalType": "address",
          "name": "_token",
          "type": "address"
        },
        {
          "internalType": "uint256",
          "name": "_timeReward",
          "type": "uint256"
        },
        {
          "internalType": "uint256",
          "name": "_rewardPercent",
          "type": "uint256"
        }
      ],
      "stateMutability": "nonpayable",
      "type": "constructor"
    },
    {
      "inputs": [
        {
          "internalType": "address",
          "name": "owner",
          "type": "address"
        }
      ],
      "name": "OwnableInvalidOwner",
      "type": "error"
    },
    {
      "inputs": [
        {
          "internalType": "address",
          "name": "account",
          "type": "address"
        }
      ],
      "name": "OwnableUnauthorizedAccount",
      "type": "error"
    },
    {
      "inputs": [],
      "name": "ReentrancyGuardReentrantCall",
      "type": "error"
    },
    {
      "anonymous": false,
      "inputs": [
        {
          "indexed": true,
          "internalType": "address",
          "name": "user",
          "type": "address"
        },
        {
          "indexed": false,
          "internalType": "uint256",
          "name": "amount",
          "type": "uint256"
        }
      ],
      "name": "ClaimRewardEvent",
      "type": "event"
    },
    {
      "anonymous": false,
      "inputs": [
        {
          "indexed": true,
          "internalType": "address",
          "name": "previousOwner",
          "type": "address"
        },
        {
          "indexed": true,
          "internalType": "address",
          "name": "newOwner",
          "type": "address"
        }
      ],
      "name": "OwnershipTransferred",
      "type": "event"
    },
    {
      "anonymous": false,
      "inputs": [
        {
          "indexed": true,
          "internalType": "address",
          "name": "user",
          "type": "address"
        },
        {
          "indexed": false,
          "internalType": "uint256",
          "name": "amount",
          "type": "uint256"
        }
      ],
      "name": "StakeEvent",
      "type": "event"
    },
    {
      "anonymous": false,
      "inputs": [
        {
          "indexed": true,
          "internalType": "address",
          "name": "user",
          "type": "address"
        },
        {
          "indexed": false,
          "internalType": "uint256",
          "name": "amount",
          "type": "uint256"
        }
      ],
      "name": "UnstakeEvent",
      "type": "event"
    },
    {
      "inputs": [
        {
          "internalType": "address",
          "name": "",
          "type": "address"
        }
      ],
      "name": "Stake",
      "outputs": [
        {
          "internalType": "uint256",
          "name": "amount",
          "type": "uint256"
        },
        {
          "internalType": "uint256",
          "name": "stakeTime",
          "type": "uint256"
        }
      ],
      "stateMutability": "view",
      "type": "function"
    },
    {
      "inputs": [
        {
          "internalType": "uint256",
          "name": "_stakeTime",
          "type": "uint256"
        }
      ],
      "name": "_dayRewardCalc",
      "outputs": [
        {
          "internalType": "uint256",
          "name": "",
          "type": "uint256"
        }
      ],
      "stateMutability": "view",
      "type": "function"
    },
    {
      "inputs": [
        {
          "internalType": "uint256",
          "name": "_rewardPercent",
          "type": "uint256"
        }
      ],
      "name": "changeRewardPercentage",
      "outputs": [],
      "stateMutability": "nonpayable",
      "type": "function"
    },
    {
      "inputs": [
        {
          "internalType": "uint256",
          "name": "_timeReward",
          "type": "uint256"
        }
      ],
      "name": "changeTimeReward",
      "outputs": [],
      "stateMutability": "nonpayable",
      "type": "function"
    },
    {
      "inputs": [
        {
          "internalType": "uint256",
          "name": "_amount",
          "type": "uint256"
        }
      ],
      "name": "depositOwner",
      "outputs": [],
      "stateMutability": "nonpayable",
      "type": "function"
    },
    {
      "inputs": [],
      "name": "getBalance",
      "outputs": [
        {
          "internalType": "uint256",
          "name": "",
          "type": "uint256"
        }
      ],
      "stateMutability": "view",
      "type": "function"
    },
    {
      "inputs": [],
      "name": "owner",
      "outputs": [
        {
          "internalType": "address",
          "name": "",
          "type": "address"
        }
      ],
      "stateMutability": "view",
      "type": "function"
    },
    {
      "inputs": [
        {
          "internalType": "uint256",
          "name": "_amount",
          "type": "uint256"
        }
      ],
      "name": "ownerWithdraw",
      "outputs": [],
      "stateMutability": "nonpayable",
      "type": "function"
    },
    {
      "inputs": [],
      "name": "renounceOwnership",
      "outputs": [],
      "stateMutability": "nonpayable",
      "type": "function"
    },
    {
      "inputs": [],
      "name": "reward",
      "outputs": [
        {
          "internalType": "uint256",
          "name": "",
          "type": "uint256"
        }
      ],
      "stateMutability": "view",
      "type": "function"
    },
    {
      "inputs": [],
      "name": "rewardPercent",
      "outputs": [
        {
          "internalType": "uint256",
          "name": "",
          "type": "uint256"
        }
      ],
      "stateMutability": "view",
      "type": "function"
    },
    {
      "inputs": [
        {
          "internalType": "uint256",
          "name": "_amount",
          "type": "uint256"
        }
      ],
      "name": "stake",
      "outputs": [],
      "stateMutability": "nonpayable",
      "type": "function"
    },
    {
      "inputs": [],
      "name": "timeReward",
      "outputs": [
        {
          "internalType": "uint256",
          "name": "",
          "type": "uint256"
        }
      ],
      "stateMutability": "view",
      "type": "function"
    },
    {
      "inputs": [],
      "name": "token",
      "outputs": [
        {
          "internalType": "contract IERC20",
          "name": "",
          "type": "address"
        }
      ],
      "stateMutability": "view",
      "type": "function"
    },
    {
      "inputs": [
        {
          "internalType": "address",
          "name": "newOwner",
          "type": "address"
        }
      ],
      "name": "transferOwnership",
      "outputs": [],
      "stateMutability": "nonpayable",
      "type": "function"
    },
    {
      "inputs": [],
      "name": "unStake",
      "outputs": [],
      "stateMutability": "nonpayable",
      "type": "function"
    },
    {
      "inputs": [],
      "name": "withdrawReward",
      "outputs": [],
      "stateMutability": "nonpayable",
      "type": "function"
    }
  ],
  "bytecode": "0x608060405234801562000010575f80fd5b50604051620025733803806200257383398181016040528101906200003691906200027a565b3360015f819055505f73ffffffffffffffffffffffffffffffffffffffff168173ffffffffffffffffffffffffffffffffffffffff1603620000b1575f6040517f1e4fbdf7000000000000000000000000000000000000000000000000000000008152600401620000a89190620002e4565b60405180910390fd5b620000c2816200011a60201b60201c565b508260045f6101000a81548173ffffffffffffffffffffffffffffffffffffffff021916908373ffffffffffffffffffffffffffffffffffffffff1602179055508160028190555080600381905550505050620002ff565b5f60015f9054906101000a900473ffffffffffffffffffffffffffffffffffffffff1690508160015f6101000a81548173ffffffffffffffffffffffffffffffffffffffff021916908373ffffffffffffffffffffffffffffffffffffffff1602179055508173ffffffffffffffffffffffffffffffffffffffff168173ffffffffffffffffffffffffffffffffffffffff167f8be0079c531659141344cd1fd0a4f28419497f9722a3daafe3b4186f6b6457e060405160405180910390a35050565b5f80fd5b5f73ffffffffffffffffffffffffffffffffffffffff82169050919050565b5f6200020c82620001e1565b9050919050565b6200021e8162000200565b811462000229575f80fd5b50565b5f815190506200023c8162000213565b92915050565b5f819050919050565b620002568162000242565b811462000261575f80fd5b50565b5f8151905062000274816200024b565b92915050565b5f805f60608486031215620002945762000293620001dd565b5b5f620002a3868287016200022c565b9350506020620002b68682870162000264565b9250506040620002c98682870162000264565b9150509250925092565b620002de8162000200565b82525050565b5f602082019050620002f95f830184620002d3565b92915050565b612266806200030d5f395ff3fe608060405234801561000f575f80fd5b5060043610610109575f3560e01c80638da5cb5b116100a0578063d03020511161006f578063d030205114610258578063ef7789f314610276578063f2fde38b14610292578063fc0c546a146102ae578063fd6e7b14146102cc57610109565b80638da5cb5b146101e4578063a694fc3a14610202578063bd1c78d81461021e578063c885bc581461024e57610109565b806333f707d1116100dc57806333f707d114610183578063715018a61461019f57806373cf575a146101a95780638c000936146101b357610109565b806312065fe01461010d578063228cb7331461012b57806328cf8bb014610149578063331afd1314610165575b5f80fd5b6101156102e8565b604051610122919061185f565b60405180910390f35b6101336103f3565b604051610140919061185f565b60405180910390f35b610163600480360381019061015e91906118a6565b6104bd565b005b61016d61079f565b60405161017a919061185f565b60405180910390f35b61019d600480360381019061019891906118a6565b6107a5565b005b6101a76109a8565b005b6101b16109bb565b005b6101cd60048036038101906101c8919061192b565b610d5e565b6040516101db929190611956565b60405180910390f35b6101ec610d7e565b6040516101f9919061198c565b60405180910390f35b61021c600480360381019061021791906118a6565b610da6565b005b610238600480360381019061023391906118a6565b6111b6565b604051610245919061185f565b60405180910390f35b6102566111da565b005b61026061152c565b60405161026d919061185f565b60405180910390f35b610290600480360381019061028b91906118a6565b611532565b005b6102ac60048036038101906102a7919061192b565b611544565b005b6102b66115c8565b6040516102c39190611a00565b60405180910390f35b6102e660048036038101906102e191906118a6565b6115ed565b005b5f8061033360055f3373ffffffffffffffffffffffffffffffffffffffff1673ffffffffffffffffffffffffffffffffffffffff1681526020019081526020015f20600101546111b6565b90505f6064600354836103469190611a46565b60055f3373ffffffffffffffffffffffffffffffffffffffff1673ffffffffffffffffffffffffffffffffffffffff1681526020019081526020015f205f01546103909190611a46565b61039a9190611ab4565b90505f8160055f3373ffffffffffffffffffffffffffffffffffffffff1673ffffffffffffffffffffffffffffffffffffffff1681526020019081526020015f205f01546103e89190611ae4565b905080935050505090565b5f8061044c60055f3373ffffffffffffffffffffffffffffffffffffffff1673ffffffffffffffffffffffffffffffffffffffff1681526020019081526020015f2060010154426104449190611b17565b6002546115ff565b90505f60646003548361045f9190611a46565b60055f3373ffffffffffffffffffffffffffffffffffffffff1673ffffffffffffffffffffffffffffffffffffffff1681526020019081526020015f205f01546104a99190611a46565b6104b39190611ab4565b9050809250505090565b6104c5611648565b5f8103610507576040517f08c379a00000000000000000000000000000000000000000000000000000000081526004016104fe90611ba4565b60405180910390fd5b8060045f9054906101000a900473ffffffffffffffffffffffffffffffffffffffff1673ffffffffffffffffffffffffffffffffffffffff166370a08231336040518263ffffffff1660e01b8152600401610562919061198c565b602060405180830381865afa15801561057d573d5f803e3d5ffd5b505050506040513d601f19601f820116820180604052508101906105a19190611bd6565b10156105e2576040517f08c379a00000000000000000000000000000000000000000000000000000000081526004016105d990611c71565b60405180910390fd5b8060045f9054906101000a900473ffffffffffffffffffffffffffffffffffffffff1673ffffffffffffffffffffffffffffffffffffffff1663dd62ed3e33306040518363ffffffff1660e01b815260040161063f929190611c8f565b602060405180830381865afa15801561065a573d5f803e3d5ffd5b505050506040513d601f19601f8201168201806040525081019061067e9190611bd6565b10156106bf576040517f08c379a00000000000000000000000000000000000000000000000000000000081526004016106b690611d26565b60405180910390fd5b60045f9054906101000a900473ffffffffffffffffffffffffffffffffffffffff1673ffffffffffffffffffffffffffffffffffffffff166323b872dd3330846040518463ffffffff1660e01b815260040161071d93929190611d44565b6020604051808303815f875af1158015610739573d5f803e3d5ffd5b505050506040513d601f19601f8201168201806040525081019061075d9190611dae565b61079c576040517f08c379a000000000000000000000000000000000000000000000000000000000815260040161079390611e23565b60405180910390fd5b50565b60025481565b6107ad611648565b5f81036107ef576040517f08c379a00000000000000000000000000000000000000000000000000000000081526004016107e690611ba4565b60405180910390fd5b8060045f9054906101000a900473ffffffffffffffffffffffffffffffffffffffff1673ffffffffffffffffffffffffffffffffffffffff166370a08231306040518263ffffffff1660e01b815260040161084a919061198c565b602060405180830381865afa158015610865573d5f803e3d5ffd5b505050506040513d601f19601f820116820180604052508101906108899190611bd6565b10156108ca576040517f08c379a00000000000000000000000000000000000000000000000000000000081526004016108c190611eb1565b60405180910390fd5b60045f9054906101000a900473ffffffffffffffffffffffffffffffffffffffff1673ffffffffffffffffffffffffffffffffffffffff1663a9059cbb33836040518363ffffffff1660e01b8152600401610926929190611ecf565b6020604051808303815f875af1158015610942573d5f803e3d5ffd5b505050506040513d601f19601f820116820180604052508101906109669190611dae565b6109a5576040517f08c379a000000000000000000000000000000000000000000000000000000000815260040161099c90611e23565b60405180910390fd5b50565b6109b0611648565b6109b95f6116cf565b565b6109c3611792565b5f610a0d60055f3373ffffffffffffffffffffffffffffffffffffffff1673ffffffffffffffffffffffffffffffffffffffff1681526020019081526020015f20600101546111b6565b90505f606460035483610a209190611a46565b60055f3373ffffffffffffffffffffffffffffffffffffffff1673ffffffffffffffffffffffffffffffffffffffff1681526020019081526020015f205f0154610a6a9190611a46565b610a749190611ab4565b90505f8160055f3373ffffffffffffffffffffffffffffffffffffffff1673ffffffffffffffffffffffffffffffffffffffff1681526020019081526020015f205f0154610ac29190611ae4565b90505f60055f3373ffffffffffffffffffffffffffffffffffffffff1673ffffffffffffffffffffffffffffffffffffffff1681526020019081526020015f205f01819055504260055f3373ffffffffffffffffffffffffffffffffffffffff1673ffffffffffffffffffffffffffffffffffffffff1681526020019081526020015f20600101819055508060045f9054906101000a900473ffffffffffffffffffffffffffffffffffffffff1673ffffffffffffffffffffffffffffffffffffffff166370a08231306040518263ffffffff1660e01b8152600401610ba8919061198c565b602060405180830381865afa158015610bc3573d5f803e3d5ffd5b505050506040513d601f19601f82011682018060405250810190610be79190611bd6565b1015610c28576040517f08c379a0000000000000000000000000000000000000000000000000000000008152600401610c1f90611eb1565b60405180910390fd5b60045f9054906101000a900473ffffffffffffffffffffffffffffffffffffffff1673ffffffffffffffffffffffffffffffffffffffff1663a9059cbb33836040518363ffffffff1660e01b8152600401610c84929190611ecf565b6020604051808303815f875af1158015610ca0573d5f803e3d5ffd5b505050506040513d601f19601f82011682018060405250810190610cc49190611dae565b610d03576040517f08c379a0000000000000000000000000000000000000000000000000000000008152600401610cfa90611e23565b60405180910390fd5b3373ffffffffffffffffffffffffffffffffffffffff167ff45fdc8b170b360d913177d3b852542edf6a0bcbb65f3682769f72e0bd17332682604051610d49919061185f565b60405180910390a2505050610d5c6117d6565b565b6005602052805f5260405f205f91509050805f0154908060010154905082565b5f60015f9054906101000a900473ffffffffffffffffffffffffffffffffffffffff16905090565b5f8103610de8576040517f08c379a0000000000000000000000000000000000000000000000000000000008152600401610ddf90611f40565b60405180910390fd5b5f60055f3373ffffffffffffffffffffffffffffffffffffffff1673ffffffffffffffffffffffffffffffffffffffff1681526020019081526020015f205f015414610e69576040517f08c379a0000000000000000000000000000000000000000000000000000000008152600401610e6090611fce565b60405180910390fd5b8060045f9054906101000a900473ffffffffffffffffffffffffffffffffffffffff1673ffffffffffffffffffffffffffffffffffffffff166370a08231336040518263ffffffff1660e01b8152600401610ec4919061198c565b602060405180830381865afa158015610edf573d5f803e3d5ffd5b505050506040513d601f19601f82011682018060405250810190610f039190611bd6565b1015610f44576040517f08c379a0000000000000000000000000000000000000000000000000000000008152600401610f3b9061205c565b60405180910390fd5b8060045f9054906101000a900473ffffffffffffffffffffffffffffffffffffffff1673ffffffffffffffffffffffffffffffffffffffff1663dd62ed3e33306040518363ffffffff1660e01b8152600401610fa1929190611c8f565b602060405180830381865afa158015610fbc573d5f803e3d5ffd5b505050506040513d601f19601f82011682018060405250810190610fe09190611bd6565b1015611021576040517f08c379a0000000000000000000000000000000000000000000000000000000008152600401611018906120ea565b60405180910390fd5b60045f9054906101000a900473ffffffffffffffffffffffffffffffffffffffff1673ffffffffffffffffffffffffffffffffffffffff166323b872dd3330846040518463ffffffff1660e01b815260040161107f93929190611d44565b6020604051808303815f875af115801561109b573d5f803e3d5ffd5b505050506040513d601f19601f820116820180604052508101906110bf9190611dae565b6110fe576040517f08c379a00000000000000000000000000000000000000000000000000000000081526004016110f590611e23565b60405180910390fd5b60405180604001604052808281526020014281525060055f3373ffffffffffffffffffffffffffffffffffffffff1673ffffffffffffffffffffffffffffffffffffffff1681526020019081526020015f205f820151815f0155602082015181600101559050503373ffffffffffffffffffffffffffffffffffffffff167fb58845b0a64f92dd8d1ba04f905319d6be2021b57783b3d10155e7e36a84e128826040516111ab919061185f565b60405180910390a250565b5f806111cf83426111c79190611b17565b6002546115ff565b905080915050919050565b6111e2611792565b5f61122c60055f3373ffffffffffffffffffffffffffffffffffffffff1673ffffffffffffffffffffffffffffffffffffffff1681526020019081526020015f20600101546111b6565b90505f8103611270576040517f08c379a000000000000000000000000000000000000000000000000000000000815260040161126790612178565b60405180910390fd5b5f6064600354836112819190611a46565b60055f3373ffffffffffffffffffffffffffffffffffffffff1673ffffffffffffffffffffffffffffffffffffffff1681526020019081526020015f205f01546112cb9190611a46565b6112d59190611ab4565b90504260055f3373ffffffffffffffffffffffffffffffffffffffff1673ffffffffffffffffffffffffffffffffffffffff1681526020019081526020015f20600101819055508060045f9054906101000a900473ffffffffffffffffffffffffffffffffffffffff1673ffffffffffffffffffffffffffffffffffffffff166370a08231306040518263ffffffff1660e01b8152600401611377919061198c565b602060405180830381865afa158015611392573d5f803e3d5ffd5b505050506040513d601f19601f820116820180604052508101906113b69190611bd6565b10156113f7576040517f08c379a00000000000000000000000000000000000000000000000000000000081526004016113ee90611eb1565b60405180910390fd5b60045f9054906101000a900473ffffffffffffffffffffffffffffffffffffffff1673ffffffffffffffffffffffffffffffffffffffff1663a9059cbb33836040518363ffffffff1660e01b8152600401611453929190611ecf565b6020604051808303815f875af115801561146f573d5f803e3d5ffd5b505050506040513d601f19601f820116820180604052508101906114939190611dae565b6114d2576040517f08c379a00000000000000000000000000000000000000000000000000000000081526004016114c990611e23565b60405180910390fd5b3373ffffffffffffffffffffffffffffffffffffffff167fbac2b4e3756ca11aceca25df7422e66f759ddc2576a05e12df11b0cc8d9aade882604051611518919061185f565b60405180910390a2505061152a6117d6565b565b60035481565b61153a611648565b8060028190555050565b61154c611648565b5f73ffffffffffffffffffffffffffffffffffffffff168173ffffffffffffffffffffffffffffffffffffffff16036115bc575f6040517f1e4fbdf70000000000000000000000000000000000000000000000000000000081526004016115b3919061198c565b60405180910390fd5b6115c5816116cf565b50565b60045f9054906101000a900473ffffffffffffffffffffffffffffffffffffffff1681565b6115f5611648565b8060038190555050565b5f61164083836040518060400160405280601a81526020017f536166654d6174683a206469766973696f6e206279207a65726f0000000000008152506117df565b905092915050565b611650611840565b73ffffffffffffffffffffffffffffffffffffffff1661166e610d7e565b73ffffffffffffffffffffffffffffffffffffffff16146116cd57611691611840565b6040517f118cdaa70000000000000000000000000000000000000000000000000000000081526004016116c4919061198c565b60405180910390fd5b565b5f60015f9054906101000a900473ffffffffffffffffffffffffffffffffffffffff1690508160015f6101000a81548173ffffffffffffffffffffffffffffffffffffffff021916908373ffffffffffffffffffffffffffffffffffffffff1602179055508173ffffffffffffffffffffffffffffffffffffffff168173ffffffffffffffffffffffffffffffffffffffff167f8be0079c531659141344cd1fd0a4f28419497f9722a3daafe3b4186f6b6457e060405160405180910390a35050565b60025f54036117cd576040517f3ee5aeb500000000000000000000000000000000000000000000000000000000815260040160405180910390fd5b60025f81905550565b60015f81905550565b5f8083118290611825576040517f08c379a000000000000000000000000000000000000000000000000000000000815260040161181c9190612210565b60405180910390fd5b505f83856118339190611ab4565b9050809150509392505050565b5f33905090565b5f819050919050565b61185981611847565b82525050565b5f6020820190506118725f830184611850565b92915050565b5f80fd5b61188581611847565b811461188f575f80fd5b50565b5f813590506118a08161187c565b92915050565b5f602082840312156118bb576118ba611878565b5b5f6118c884828501611892565b91505092915050565b5f73ffffffffffffffffffffffffffffffffffffffff82169050919050565b5f6118fa826118d1565b9050919050565b61190a816118f0565b8114611914575f80fd5b50565b5f8135905061192581611901565b92915050565b5f602082840312156119405761193f611878565b5b5f61194d84828501611917565b91505092915050565b5f6040820190506119695f830185611850565b6119766020830184611850565b9392505050565b611986816118f0565b82525050565b5f60208201905061199f5f83018461197d565b92915050565b5f819050919050565b5f6119c86119c36119be846118d1565b6119a5565b6118d1565b9050919050565b5f6119d9826119ae565b9050919050565b5f6119ea826119cf565b9050919050565b6119fa816119e0565b82525050565b5f602082019050611a135f8301846119f1565b92915050565b7f4e487b71000000000000000000000000000000000000000000000000000000005f52601160045260245ffd5b5f611a5082611847565b9150611a5b83611847565b9250828202611a6981611847565b91508282048414831517611a8057611a7f611a19565b5b5092915050565b7f4e487b71000000000000000000000000000000000000000000000000000000005f52601260045260245ffd5b5f611abe82611847565b9150611ac983611847565b925082611ad957611ad8611a87565b5b828204905092915050565b5f611aee82611847565b9150611af983611847565b9250828201905080821115611b1157611b10611a19565b5b92915050565b5f611b2182611847565b9150611b2c83611847565b9250828203905081811115611b4457611b43611a19565b5b92915050565b5f82825260208201905092915050565b7f416d6f756e74206d757374206e6f74206265207a65726f0000000000000000005f82015250565b5f611b8e601783611b4a565b9150611b9982611b5a565b602082019050919050565b5f6020820190508181035f830152611bbb81611b82565b9050919050565b5f81519050611bd08161187c565b92915050565b5f60208284031215611beb57611bea611878565b5b5f611bf884828501611bc2565b91505092915050565b7f596f7520646f6e74206861766520656e6f75676820746f6b656e20746f2064655f8201527f706f736974000000000000000000000000000000000000000000000000000000602082015250565b5f611c5b602583611b4a565b9150611c6682611c01565b604082019050919050565b5f6020820190508181035f830152611c8881611c4f565b9050919050565b5f604082019050611ca25f83018561197d565b611caf602083018461197d565b9392505050565b7f596f7520646f6e74206861766520656e6f75676820616c6c6f77616e636520745f8201527f6f206465706f7369740000000000000000000000000000000000000000000000602082015250565b5f611d10602983611b4a565b9150611d1b82611cb6565b604082019050919050565b5f6020820190508181035f830152611d3d81611d04565b9050919050565b5f606082019050611d575f83018661197d565b611d64602083018561197d565b611d716040830184611850565b949350505050565b5f8115159050919050565b611d8d81611d79565b8114611d97575f80fd5b50565b5f81519050611da881611d84565b92915050565b5f60208284031215611dc357611dc2611878565b5b5f611dd084828501611d9a565b91505092915050565b7f5472616e73616374696f6e204661696c640000000000000000000000000000005f82015250565b5f611e0d601183611b4a565b9150611e1882611dd9565b602082019050919050565b5f6020820190508181035f830152611e3a81611e01565b9050919050565b7f54686520436f6e74726163742062616c616e6365206973206e6f7420656e6f755f8201527f6768000000000000000000000000000000000000000000000000000000000000602082015250565b5f611e9b602283611b4a565b9150611ea682611e41565b604082019050919050565b5f6020820190508181035f830152611ec881611e8f565b9050919050565b5f604082019050611ee25f83018561197d565b611eef6020830184611850565b9392505050565b7f546865206d696e696d756d2076616c7565206572726f720000000000000000005f82015250565b5f611f2a601783611b4a565b9150611f3582611ef6565b602082019050919050565b5f6020820190508181035f830152611f5781611f1e565b9050919050565b7f596f75206861766520616c7265616479207374616b656420706c6561736520665f8201527f6972737420756e7374616b6520796f7572206c61737420616374697669747900602082015250565b5f611fb8603f83611b4a565b9150611fc382611f5e565b604082019050919050565b5f6020820190508181035f830152611fe581611fac565b9050919050565b7f596f7520646f6e74206861766520656e6f75676820746f6b656e20746f2073745f8201527f616b650000000000000000000000000000000000000000000000000000000000602082015250565b5f612046602383611b4a565b915061205182611fec565b604082019050919050565b5f6020820190508181035f8301526120738161203a565b9050919050565b7f596f7520646f6e74206861766520656e6f75676820616c6c6f77616e636520745f8201527f6f207374616b6500000000000000000000000000000000000000000000000000602082015250565b5f6120d4602783611b4a565b91506120df8261207a565b604082019050919050565b5f6020820190508181035f830152612101816120c8565b9050919050565b7f596f752063616e7420776974686472617720796f7572207265776172642061745f8201527f20746869732074696d6500000000000000000000000000000000000000000000602082015250565b5f612162602a83611b4a565b915061216d82612108565b604082019050919050565b5f6020820190508181035f83015261218f81612156565b9050919050565b5f81519050919050565b5f5b838110156121bd5780820151818401526020810190506121a2565b5f8484015250505050565b5f601f19601f8301169050919050565b5f6121e282612196565b6121ec8185611b4a565b93506121fc8185602086016121a0565b612205816121c8565b840191505092915050565b5f6020820190508181035f83015261222881846121d8565b90509291505056fea2646970667358221220ad4eb9928eea91522fe5bef75e256af3581383150c41144e0405f8ac600d7c0964736f6c63430008140033",
  "linkReferences": {},
  "deployedLinkReferences": {}
}