{
  "_format": "hh-sol-artifact-1",
  "contractName": "stakeContract",
  "sourceName": "contracts/stake.sol",
  "abi": [
    {
      "inputs": [
        {
          "internalType": "address",
          "name": "_token",
          "type": "address"
        },
        {
          "internalType": "uint256",
          "name": "_timeReward",
          "type": "uint256"
        },
        {
          "internalType": "uint256",
          "name": "_rewardPercent",
          "type": "uint256"
        }
      ],
      "stateMutability": "nonpayable",
      "type": "constructor"
    },
    {
      "inputs": [],
      "name": "ReentrancyGuardReentrantCall",
      "type": "error"
    },
    {
      "anonymous": false,
      "inputs": [
        {
          "indexed": true,
          "internalType": "address",
          "name": "user",
          "type": "address"
        },
        {
          "indexed": false,
          "internalType": "uint256",
          "name": "amount",
          "type": "uint256"
        }
      ],
      "name": "ClaimRewardEvent",
      "type": "event"
    },
    {
      "anonymous": false,
      "inputs": [
        {
          "indexed": true,
          "internalType": "address",
          "name": "user",
          "type": "address"
        },
        {
          "indexed": false,
          "internalType": "uint256",
          "name": "amount",
          "type": "uint256"
        }
      ],
      "name": "StakeEvent",
      "type": "event"
    },
    {
      "anonymous": false,
      "inputs": [
        {
          "indexed": true,
          "internalType": "address",
          "name": "user",
          "type": "address"
        },
        {
          "indexed": false,
          "internalType": "uint256",
          "name": "amount",
          "type": "uint256"
        }
      ],
      "name": "UnstakeEvent",
      "type": "event"
    },
    {
      "inputs": [
        {
          "internalType": "address",
          "name": "",
          "type": "address"
        }
      ],
      "name": "Stake",
      "outputs": [
        {
          "internalType": "uint256",
          "name": "amount",
          "type": "uint256"
        },
        {
          "internalType": "uint256",
          "name": "stakeTime",
          "type": "uint256"
        }
      ],
      "stateMutability": "view",
      "type": "function"
    },
    {
      "inputs": [
        {
          "internalType": "uint256",
          "name": "_stakeTime",
          "type": "uint256"
        }
      ],
      "name": "_dayRewardCalc",
      "outputs": [
        {
          "internalType": "uint256",
          "name": "",
          "type": "uint256"
        }
      ],
      "stateMutability": "view",
      "type": "function"
    },
    {
      "inputs": [
        {
          "internalType": "uint256",
          "name": "_rewardPercent",
          "type": "uint256"
        }
      ],
      "name": "changeRewardPercentage",
      "outputs": [],
      "stateMutability": "nonpayable",
      "type": "function"
    },
    {
      "inputs": [
        {
          "internalType": "uint256",
          "name": "_timeReward",
          "type": "uint256"
        }
      ],
      "name": "changeTimeReward",
      "outputs": [],
      "stateMutability": "nonpayable",
      "type": "function"
    },
    {
      "inputs": [
        {
          "internalType": "uint256",
          "name": "_amount",
          "type": "uint256"
        }
      ],
      "name": "depositOwner",
      "outputs": [],
      "stateMutability": "nonpayable",
      "type": "function"
    },
    {
      "inputs": [],
      "name": "getBalance",
      "outputs": [
        {
          "internalType": "uint256",
          "name": "",
          "type": "uint256"
        }
      ],
      "stateMutability": "view",
      "type": "function"
    },
    {
      "inputs": [],
      "name": "owner",
      "outputs": [
        {
          "internalType": "address payable",
          "name": "",
          "type": "address"
        }
      ],
      "stateMutability": "view",
      "type": "function"
    },
    {
      "inputs": [
        {
          "internalType": "uint256",
          "name": "_amount",
          "type": "uint256"
        }
      ],
      "name": "ownerWithdraw",
      "outputs": [],
      "stateMutability": "nonpayable",
      "type": "function"
    },
    {
      "inputs": [],
      "name": "reward",
      "outputs": [
        {
          "internalType": "uint256",
          "name": "",
          "type": "uint256"
        }
      ],
      "stateMutability": "view",
      "type": "function"
    },
    {
      "inputs": [],
      "name": "rewardPercent",
      "outputs": [
        {
          "internalType": "uint256",
          "name": "",
          "type": "uint256"
        }
      ],
      "stateMutability": "view",
      "type": "function"
    },
    {
      "inputs": [
        {
          "internalType": "uint256",
          "name": "_amount",
          "type": "uint256"
        }
      ],
      "name": "stake",
      "outputs": [],
      "stateMutability": "nonpayable",
      "type": "function"
    },
    {
      "inputs": [],
      "name": "timeReward",
      "outputs": [
        {
          "internalType": "uint256",
          "name": "",
          "type": "uint256"
        }
      ],
      "stateMutability": "view",
      "type": "function"
    },
    {
      "inputs": [],
      "name": "token",
      "outputs": [
        {
          "internalType": "contract IERC20",
          "name": "",
          "type": "address"
        }
      ],
      "stateMutability": "view",
      "type": "function"
    },
    {
      "inputs": [],
      "name": "unSatke",
      "outputs": [],
      "stateMutability": "nonpayable",
      "type": "function"
    },
    {
      "inputs": [],
      "name": "withdrawReward",
      "outputs": [],
      "stateMutability": "nonpayable",
      "type": "function"
    }
  ],
  "bytecode": "0x60a060405234801562000010575f80fd5b506040516200251038038062002510833981810160405281019062000036919062000165565b60015f819055508260035f6101000a81548173ffffffffffffffffffffffffffffffffffffffff021916908373ffffffffffffffffffffffffffffffffffffffff16021790555081600181905550806002819055503373ffffffffffffffffffffffffffffffffffffffff1660808173ffffffffffffffffffffffffffffffffffffffff1681525050505050620001be565b5f80fd5b5f73ffffffffffffffffffffffffffffffffffffffff82169050919050565b5f620000f782620000cc565b9050919050565b6200010981620000eb565b811462000114575f80fd5b50565b5f815190506200012781620000fe565b92915050565b5f819050919050565b62000141816200012d565b81146200014c575f80fd5b50565b5f815190506200015f8162000136565b92915050565b5f805f606084860312156200017f576200017e620000c8565b5b5f6200018e8682870162000117565b9350506020620001a1868287016200014f565b9250506040620001b4868287016200014f565b9150509250925092565b60805161231d620001f35f395f8181610483015281816107f101528181610a9a015281816115ed01526116aa015261231d5ff3fe608060405234801561000f575f80fd5b50600436106100f3575f3560e01c8063945cf38e11610095578063d030205111610064578063d030205114610238578063ef7789f314610256578063fc0c546a14610272578063fd6e7b1414610290576100f3565b8063945cf38e146101d8578063a694fc3a146101e2578063bd1c78d8146101fe578063c885bc581461022e576100f3565b8063331afd13116100d1578063331afd131461014f57806333f707d11461016d5780638c000936146101895780638da5cb5b146101ba576100f3565b806312065fe0146100f7578063228cb7331461011557806328cf8bb014610133575b5f80fd5b6100ff6102ac565b60405161010c919061184f565b60405180910390f35b61011d6103b7565b60405161012a919061184f565b60405180910390f35b61014d60048036038101906101489190611896565b610481565b005b6101576107e9565b604051610164919061184f565b60405180910390f35b61018760048036038101906101829190611896565b6107ef565b005b6101a3600480360381019061019e919061191b565b610a78565b6040516101b1929190611946565b60405180910390f35b6101c2610a98565b6040516101cf919061198d565b60405180910390f35b6101e0610abc565b005b6101fc60048036038101906101f79190611896565b610e5f565b005b61021860048036038101906102139190611896565b61126f565b604051610225919061184f565b60405180910390f35b610236611293565b005b6102406115e5565b60405161024d919061184f565b60405180910390f35b610270600480360381019061026b9190611896565b6115eb565b005b61027a611683565b6040516102879190611a01565b60405180910390f35b6102aa60048036038101906102a59190611896565b6116a8565b005b5f806102f760045f3373ffffffffffffffffffffffffffffffffffffffff1673ffffffffffffffffffffffffffffffffffffffff1681526020019081526020015f206001015461126f565b90505f60646002548361030a9190611a47565b60045f3373ffffffffffffffffffffffffffffffffffffffff1673ffffffffffffffffffffffffffffffffffffffff1681526020019081526020015f205f01546103549190611a47565b61035e9190611ab5565b90505f8160045f3373ffffffffffffffffffffffffffffffffffffffff1673ffffffffffffffffffffffffffffffffffffffff1681526020019081526020015f205f01546103ac9190611ae5565b905080935050505090565b5f8061041060045f3373ffffffffffffffffffffffffffffffffffffffff1673ffffffffffffffffffffffffffffffffffffffff1681526020019081526020015f2060010154426104089190611b18565b600154611740565b90505f6064600254836104239190611a47565b60045f3373ffffffffffffffffffffffffffffffffffffffff1673ffffffffffffffffffffffffffffffffffffffff1681526020019081526020015f205f015461046d9190611a47565b6104779190611ab5565b9050809250505090565b7f000000000000000000000000000000000000000000000000000000000000000073ffffffffffffffffffffffffffffffffffffffff163373ffffffffffffffffffffffffffffffffffffffff161461050f576040517f08c379a000000000000000000000000000000000000000000000000000000000815260040161050690611bcb565b60405180910390fd5b5f8103610551576040517f08c379a000000000000000000000000000000000000000000000000000000000815260040161054890611c33565b60405180910390fd5b8060035f9054906101000a900473ffffffffffffffffffffffffffffffffffffffff1673ffffffffffffffffffffffffffffffffffffffff166370a08231336040518263ffffffff1660e01b81526004016105ac9190611c60565b602060405180830381865afa1580156105c7573d5f803e3d5ffd5b505050506040513d601f19601f820116820180604052508101906105eb9190611c8d565b101561062c576040517f08c379a000000000000000000000000000000000000000000000000000000000815260040161062390611d28565b60405180910390fd5b8060035f9054906101000a900473ffffffffffffffffffffffffffffffffffffffff1673ffffffffffffffffffffffffffffffffffffffff1663dd62ed3e33306040518363ffffffff1660e01b8152600401610689929190611d46565b602060405180830381865afa1580156106a4573d5f803e3d5ffd5b505050506040513d601f19601f820116820180604052508101906106c89190611c8d565b1015610709576040517f08c379a000000000000000000000000000000000000000000000000000000000815260040161070090611ddd565b60405180910390fd5b60035f9054906101000a900473ffffffffffffffffffffffffffffffffffffffff1673ffffffffffffffffffffffffffffffffffffffff166323b872dd3330846040518463ffffffff1660e01b815260040161076793929190611dfb565b6020604051808303815f875af1158015610783573d5f803e3d5ffd5b505050506040513d601f19601f820116820180604052508101906107a79190611e65565b6107e6576040517f08c379a00000000000000000000000000000000000000000000000000000000081526004016107dd90611eda565b60405180910390fd5b50565b60015481565b7f000000000000000000000000000000000000000000000000000000000000000073ffffffffffffffffffffffffffffffffffffffff163373ffffffffffffffffffffffffffffffffffffffff161461087d576040517f08c379a000000000000000000000000000000000000000000000000000000000815260040161087490611bcb565b60405180910390fd5b5f81036108bf576040517f08c379a00000000000000000000000000000000000000000000000000000000081526004016108b690611c33565b60405180910390fd5b8060035f9054906101000a900473ffffffffffffffffffffffffffffffffffffffff1673ffffffffffffffffffffffffffffffffffffffff166370a08231306040518263ffffffff1660e01b815260040161091a9190611c60565b602060405180830381865afa158015610935573d5f803e3d5ffd5b505050506040513d601f19601f820116820180604052508101906109599190611c8d565b101561099a576040517f08c379a000000000000000000000000000000000000000000000000000000000815260040161099190611f68565b60405180910390fd5b60035f9054906101000a900473ffffffffffffffffffffffffffffffffffffffff1673ffffffffffffffffffffffffffffffffffffffff1663a9059cbb33836040518363ffffffff1660e01b81526004016109f6929190611f86565b6020604051808303815f875af1158015610a12573d5f803e3d5ffd5b505050506040513d601f19601f82011682018060405250810190610a369190611e65565b610a75576040517f08c379a0000000000000000000000000000000000000000000000000000000008152600401610a6c90611eda565b60405180910390fd5b50565b6004602052805f5260405f205f91509050805f0154908060010154905082565b7f000000000000000000000000000000000000000000000000000000000000000081565b610ac4611789565b5f610b0e60045f3373ffffffffffffffffffffffffffffffffffffffff1673ffffffffffffffffffffffffffffffffffffffff1681526020019081526020015f206001015461126f565b90505f606460025483610b219190611a47565b60045f3373ffffffffffffffffffffffffffffffffffffffff1673ffffffffffffffffffffffffffffffffffffffff1681526020019081526020015f205f0154610b6b9190611a47565b610b759190611ab5565b90505f8160045f3373ffffffffffffffffffffffffffffffffffffffff1673ffffffffffffffffffffffffffffffffffffffff1681526020019081526020015f205f0154610bc39190611ae5565b90505f60045f3373ffffffffffffffffffffffffffffffffffffffff1673ffffffffffffffffffffffffffffffffffffffff1681526020019081526020015f205f01819055504260045f3373ffffffffffffffffffffffffffffffffffffffff1673ffffffffffffffffffffffffffffffffffffffff1681526020019081526020015f20600101819055508060035f9054906101000a900473ffffffffffffffffffffffffffffffffffffffff1673ffffffffffffffffffffffffffffffffffffffff166370a08231306040518263ffffffff1660e01b8152600401610ca99190611c60565b602060405180830381865afa158015610cc4573d5f803e3d5ffd5b505050506040513d601f19601f82011682018060405250810190610ce89190611c8d565b1015610d29576040517f08c379a0000000000000000000000000000000000000000000000000000000008152600401610d2090611f68565b60405180910390fd5b60035f9054906101000a900473ffffffffffffffffffffffffffffffffffffffff1673ffffffffffffffffffffffffffffffffffffffff1663a9059cbb33836040518363ffffffff1660e01b8152600401610d85929190611f86565b6020604051808303815f875af1158015610da1573d5f803e3d5ffd5b505050506040513d601f19601f82011682018060405250810190610dc59190611e65565b610e04576040517f08c379a0000000000000000000000000000000000000000000000000000000008152600401610dfb90611eda565b60405180910390fd5b3373ffffffffffffffffffffffffffffffffffffffff167ff45fdc8b170b360d913177d3b852542edf6a0bcbb65f3682769f72e0bd17332682604051610e4a919061184f565b60405180910390a2505050610e5d6117cd565b565b5f8103610ea1576040517f08c379a0000000000000000000000000000000000000000000000000000000008152600401610e9890611ff7565b60405180910390fd5b5f60045f3373ffffffffffffffffffffffffffffffffffffffff1673ffffffffffffffffffffffffffffffffffffffff1681526020019081526020015f205f015414610f22576040517f08c379a0000000000000000000000000000000000000000000000000000000008152600401610f1990612085565b60405180910390fd5b8060035f9054906101000a900473ffffffffffffffffffffffffffffffffffffffff1673ffffffffffffffffffffffffffffffffffffffff166370a08231336040518263ffffffff1660e01b8152600401610f7d9190611c60565b602060405180830381865afa158015610f98573d5f803e3d5ffd5b505050506040513d601f19601f82011682018060405250810190610fbc9190611c8d565b1015610ffd576040517f08c379a0000000000000000000000000000000000000000000000000000000008152600401610ff490612113565b60405180910390fd5b8060035f9054906101000a900473ffffffffffffffffffffffffffffffffffffffff1673ffffffffffffffffffffffffffffffffffffffff1663dd62ed3e33306040518363ffffffff1660e01b815260040161105a929190611d46565b602060405180830381865afa158015611075573d5f803e3d5ffd5b505050506040513d601f19601f820116820180604052508101906110999190611c8d565b10156110da576040517f08c379a00000000000000000000000000000000000000000000000000000000081526004016110d1906121a1565b60405180910390fd5b60035f9054906101000a900473ffffffffffffffffffffffffffffffffffffffff1673ffffffffffffffffffffffffffffffffffffffff166323b872dd3330846040518463ffffffff1660e01b815260040161113893929190611dfb565b6020604051808303815f875af1158015611154573d5f803e3d5ffd5b505050506040513d601f19601f820116820180604052508101906111789190611e65565b6111b7576040517f08c379a00000000000000000000000000000000000000000000000000000000081526004016111ae90611eda565b60405180910390fd5b60405180604001604052808281526020014281525060045f3373ffffffffffffffffffffffffffffffffffffffff1673ffffffffffffffffffffffffffffffffffffffff1681526020019081526020015f205f820151815f0155602082015181600101559050503373ffffffffffffffffffffffffffffffffffffffff167fb58845b0a64f92dd8d1ba04f905319d6be2021b57783b3d10155e7e36a84e12882604051611264919061184f565b60405180910390a250565b5f8061128883426112809190611b18565b600154611740565b905080915050919050565b61129b611789565b5f6112e560045f3373ffffffffffffffffffffffffffffffffffffffff1673ffffffffffffffffffffffffffffffffffffffff1681526020019081526020015f206001015461126f565b90505f8103611329576040517f08c379a00000000000000000000000000000000000000000000000000000000081526004016113209061222f565b60405180910390fd5b5f60646002548361133a9190611a47565b60045f3373ffffffffffffffffffffffffffffffffffffffff1673ffffffffffffffffffffffffffffffffffffffff1681526020019081526020015f205f01546113849190611a47565b61138e9190611ab5565b90504260045f3373ffffffffffffffffffffffffffffffffffffffff1673ffffffffffffffffffffffffffffffffffffffff1681526020019081526020015f20600101819055508060035f9054906101000a900473ffffffffffffffffffffffffffffffffffffffff1673ffffffffffffffffffffffffffffffffffffffff166370a08231306040518263ffffffff1660e01b81526004016114309190611c60565b602060405180830381865afa15801561144b573d5f803e3d5ffd5b505050506040513d601f19601f8201168201806040525081019061146f9190611c8d565b10156114b0576040517f08c379a00000000000000000000000000000000000000000000000000000000081526004016114a790611f68565b60405180910390fd5b60035f9054906101000a900473ffffffffffffffffffffffffffffffffffffffff1673ffffffffffffffffffffffffffffffffffffffff1663a9059cbb33836040518363ffffffff1660e01b815260040161150c929190611f86565b6020604051808303815f875af1158015611528573d5f803e3d5ffd5b505050506040513d601f19601f8201168201806040525081019061154c9190611e65565b61158b576040517f08c379a000000000000000000000000000000000000000000000000000000000815260040161158290611eda565b60405180910390fd5b3373ffffffffffffffffffffffffffffffffffffffff167fbac2b4e3756ca11aceca25df7422e66f759ddc2576a05e12df11b0cc8d9aade8826040516115d1919061184f565b60405180910390a250506115e36117cd565b565b60025481565b7f000000000000000000000000000000000000000000000000000000000000000073ffffffffffffffffffffffffffffffffffffffff163373ffffffffffffffffffffffffffffffffffffffff1614611679576040517f08c379a000000000000000000000000000000000000000000000000000000000815260040161167090611bcb565b60405180910390fd5b8060018190555050565b60035f9054906101000a900473ffffffffffffffffffffffffffffffffffffffff1681565b7f000000000000000000000000000000000000000000000000000000000000000073ffffffffffffffffffffffffffffffffffffffff163373ffffffffffffffffffffffffffffffffffffffff1614611736576040517f08c379a000000000000000000000000000000000000000000000000000000000815260040161172d90611bcb565b60405180910390fd5b8060028190555050565b5f61178183836040518060400160405280601a81526020017f536166654d6174683a206469766973696f6e206279207a65726f0000000000008152506117d6565b905092915050565b60025f54036117c4576040517f3ee5aeb500000000000000000000000000000000000000000000000000000000815260040160405180910390fd5b60025f81905550565b60015f81905550565b5f808311829061181c576040517f08c379a000000000000000000000000000000000000000000000000000000000815260040161181391906122c7565b60405180910390fd5b505f838561182a9190611ab5565b9050809150509392505050565b5f819050919050565b61184981611837565b82525050565b5f6020820190506118625f830184611840565b92915050565b5f80fd5b61187581611837565b811461187f575f80fd5b50565b5f813590506118908161186c565b92915050565b5f602082840312156118ab576118aa611868565b5b5f6118b884828501611882565b91505092915050565b5f73ffffffffffffffffffffffffffffffffffffffff82169050919050565b5f6118ea826118c1565b9050919050565b6118fa816118e0565b8114611904575f80fd5b50565b5f81359050611915816118f1565b92915050565b5f602082840312156119305761192f611868565b5b5f61193d84828501611907565b91505092915050565b5f6040820190506119595f830185611840565b6119666020830184611840565b9392505050565b5f611977826118c1565b9050919050565b6119878161196d565b82525050565b5f6020820190506119a05f83018461197e565b92915050565b5f819050919050565b5f6119c96119c46119bf846118c1565b6119a6565b6118c1565b9050919050565b5f6119da826119af565b9050919050565b5f6119eb826119d0565b9050919050565b6119fb816119e1565b82525050565b5f602082019050611a145f8301846119f2565b92915050565b7f4e487b71000000000000000000000000000000000000000000000000000000005f52601160045260245ffd5b5f611a5182611837565b9150611a5c83611837565b9250828202611a6a81611837565b91508282048414831517611a8157611a80611a1a565b5b5092915050565b7f4e487b71000000000000000000000000000000000000000000000000000000005f52601260045260245ffd5b5f611abf82611837565b9150611aca83611837565b925082611ada57611ad9611a88565b5b828204905092915050565b5f611aef82611837565b9150611afa83611837565b9250828201905080821115611b1257611b11611a1a565b5b92915050565b5f611b2282611837565b9150611b2d83611837565b9250828203905081811115611b4557611b44611a1a565b5b92915050565b5f82825260208201905092915050565b7f596f7520617265206e6f7420746865206f776e6572206f66207468697320636f5f8201527f6e74726163740000000000000000000000000000000000000000000000000000602082015250565b5f611bb5602683611b4b565b9150611bc082611b5b565b604082019050919050565b5f6020820190508181035f830152611be281611ba9565b9050919050565b7f416d6f756e74206d757374206e6f74206265207a65726f0000000000000000005f82015250565b5f611c1d601783611b4b565b9150611c2882611be9565b602082019050919050565b5f6020820190508181035f830152611c4a81611c11565b9050919050565b611c5a816118e0565b82525050565b5f602082019050611c735f830184611c51565b92915050565b5f81519050611c878161186c565b92915050565b5f60208284031215611ca257611ca1611868565b5b5f611caf84828501611c79565b91505092915050565b7f596f7520646f6e74206861766520656e6f75676820746f6b656e20746f2064655f8201527f706f736974000000000000000000000000000000000000000000000000000000602082015250565b5f611d12602583611b4b565b9150611d1d82611cb8565b604082019050919050565b5f6020820190508181035f830152611d3f81611d06565b9050919050565b5f604082019050611d595f830185611c51565b611d666020830184611c51565b9392505050565b7f596f7520646f6e74206861766520656e6f75676820616c6c6f77616e636520745f8201527f6f206465706f7369740000000000000000000000000000000000000000000000602082015250565b5f611dc7602983611b4b565b9150611dd282611d6d565b604082019050919050565b5f6020820190508181035f830152611df481611dbb565b9050919050565b5f606082019050611e0e5f830186611c51565b611e1b6020830185611c51565b611e286040830184611840565b949350505050565b5f8115159050919050565b611e4481611e30565b8114611e4e575f80fd5b50565b5f81519050611e5f81611e3b565b92915050565b5f60208284031215611e7a57611e79611868565b5b5f611e8784828501611e51565b91505092915050565b7f5472616e73616374696f6e204661696c640000000000000000000000000000005f82015250565b5f611ec4601183611b4b565b9150611ecf82611e90565b602082019050919050565b5f6020820190508181035f830152611ef181611eb8565b9050919050565b7f54686520436f6e74726163742062616c616e6365206973206e6f7420656e6f755f8201527f6768000000000000000000000000000000000000000000000000000000000000602082015250565b5f611f52602283611b4b565b9150611f5d82611ef8565b604082019050919050565b5f6020820190508181035f830152611f7f81611f46565b9050919050565b5f604082019050611f995f830185611c51565b611fa66020830184611840565b9392505050565b7f546865206d696e696d756d2076616c7565206572726f720000000000000000005f82015250565b5f611fe1601783611b4b565b9150611fec82611fad565b602082019050919050565b5f6020820190508181035f83015261200e81611fd5565b9050919050565b7f596f75206861766520616c7265616479207374616b656420706c6561736520665f8201527f6972737420756e7374616b6520796f7572206c61737420616374697669747900602082015250565b5f61206f603f83611b4b565b915061207a82612015565b604082019050919050565b5f6020820190508181035f83015261209c81612063565b9050919050565b7f596f7520646f6e74206861766520656e6f75676820746f6b656e20746f2073745f8201527f616b650000000000000000000000000000000000000000000000000000000000602082015250565b5f6120fd602383611b4b565b9150612108826120a3565b604082019050919050565b5f6020820190508181035f83015261212a816120f1565b9050919050565b7f596f7520646f6e74206861766520656e6f75676820616c6c6f77616e636520745f8201527f6f207374616b6500000000000000000000000000000000000000000000000000602082015250565b5f61218b602783611b4b565b915061219682612131565b604082019050919050565b5f6020820190508181035f8301526121b88161217f565b9050919050565b7f596f752063616e7420776974686472617720796f7572207265776172642061745f8201527f20746869732074696d6500000000000000000000000000000000000000000000602082015250565b5f612219602a83611b4b565b9150612224826121bf565b604082019050919050565b5f6020820190508181035f8301526122468161220d565b9050919050565b5f81519050919050565b5f5b83811015612274578082015181840152602081019050612259565b5f8484015250505050565b5f601f19601f8301169050919050565b5f6122998261224d565b6122a38185611b4b565b93506122b3818560208601612257565b6122bc8161227f565b840191505092915050565b5f6020820190508181035f8301526122df818461228f565b90509291505056fea2646970667358221220ae2e2ded0b0597a679283685c6d9821530cb66d441800103436659d7c078219e64736f6c63430008140033",
  "linkReferences": {},
  "deployedLinkReferences": {}
}